:100000000C945D000C9485000C9485000C94850084
:100010000C9485000C9485000C9485000C9485004C
:100020000C9485000C9485000C9485000C9485003C
:100030000C9485000C9485000C9485000C9485002C
:100040000C94DB020C9485000C944B030C94250358
:100050000C9485000C9485000C9485000C9485000C
:100060000C9485000C94850000000008000201003B
:100070000003040700000000000000000000000072
:10008000250028002B0000000000240027002A0083
:10009000040404040404040402020202020203032E
:1000A0000303030301020408102040800102040836
:1000B00010200102040810203C0411241FBECFEFC1
:1000C000D8E0DEBFCDBF12E0A0E0B1E0ECEEF8E09A
:1000D00002C005900D92AA36B107D9F723E0AAE62F
:1000E000B2E001C01D92A031B207E1F710E0CDE50A
:1000F000D0E004C02197FE010E946904CC35D107ED
:10010000C9F70E947D030C9474040C94000090E0E5
:10011000FC01EC55FF4F2491FC01E057FF4F849107
:10012000882399F090E0880F991FFC01EA57FF4F50
:10013000A591B491FC01E458FF4F859194918FB73C
:10014000F894EC91E22BEC938FBF089590E0FC01C2
:10015000E859FF4F3491FC01EC55FF4F2491FC010D
:10016000E057FF4FE491EE2309F43BC0332339F10C
:10017000333091F038F43130A9F0323001F584B5E4
:100180008F7D12C0373091F03830A1F03430B9F49F
:10019000809180008F7D03C0809180008F77809355
:1001A00080000DC084B58F7784BD09C08091B000F8
:1001B0008F7703C08091B0008F7D8093B000F0E016
:1001C000EE0FFF1FE458FF4FA591B4918FB7F8943D
:1001D000EC91611103C020952E2301C02E2B2C938E
:1001E0008FBF08951F93CF93DF93182FEB010E94C9
:1001F0008700209711F460E004C0CF3FD10539F4A7
:1002000061E0812FDF91CF911F910C94A600E12F27
:10021000F0E0E859FF4FE491E330F9F048F4E130C1
:10022000B9F0E230A1F584B5806284BDC8BD34C0A8
:10023000E730E9F0E83019F1E43049F580918000C9
:10024000806280938000D0938B00C0938A0024C08A
:1002500084B5806884BDC7BD1FC080918000806860
:1002600080938000D0938900C093880015C080914E
:10027000B00080688093B000C093B3000DC080913F
:10028000B00080628093B000C093B40005C0C03855
:10029000D1050CF0B5CFAFCFDF91CF911F9108956D
:1002A0003FB7F89480916F0290917002A091710213
:1002B000B091720226B5A89B05C02F3F19F0019698
:1002C000A11DB11D3FBFBA2FA92F982F8827820FDC
:1002D000911DA11DB11DBC01CD0142E0660F771F2C
:1002E000881F991F4A95D1F708958F929F92AF92D8
:1002F000BF92CF92DF92EF92FF920E9450014B018A
:100300005C0180E1C82E87E2D82EE12CF12C0E94FE
:100310005001DC01CB0188199909AA09BB09883E63
:100320009340A105B10558F021E0C21AD108E108B7
:10033000F10888EE880E83E0981EA11CB11CC11440
:10034000D104E104F10419F7FF90EF90DF90CF9012
:10035000BF90AF909F908F900895CF92DF92EF92D1
:10036000FF920F931F93CF93DF936C017A018B0160
:10037000C0E0D0E0CE15DF0589F0D8016D918D0188
:10038000D601ED91FC910190F081E02DC601099517
:10039000892B11F47E0102C02196ECCFC701DF91B9
:1003A000CF911F910F91FF90EF90DF90CF90089524
:1003B000089580E090E00895FC01538D448D252F31
:1003C00030E0842F90E0821B930B541710F0CF96EF
:1003D000089501970895FC01918D828D981761F021
:1003E000828DDF01A80FB11D5D968C91928D9F5F6C
:1003F0009F73928F90E008958FEF9FEF0895FC0117
:10040000918D828D981731F0828DE80FF11D858DC9
:1004100090E008958FEF9FEF0895FC01918D228D5C
:10042000892F90E0805C9F4F821B91098F739927E1
:10043000089583E792E00E940D0221E0892B09F4E0
:1004400020E0822F0895FC01848DDF01A80FB11DEB
:10045000A35ABF4F2C91848D90E001968F739927FA
:10046000848FA689B7892C93A089B1898C918064E7
:100470008C93938D848D981306C00288F389E02DA8
:1004800080818F7D80830895EF92FF920F931F9359
:10049000CF93DF93EC0181E0888F9B8D8C8D981337
:1004A00005C0E889F989808185FD24C0F62E0B8D71
:1004B00010E00F5F1F4F0F731127E02E8C8DE81295
:1004C0000CC00FB607FCFACFE889F989808185FF57
:1004D000F5CFCE010E942302F1CF8B8DFE01E80FF4
:1004E000F11DE35AFF4FF0820B8FEA89FB8980816F
:1004F000806207C0EE89FF896083E889F98980817D
:100500008064808381E090E0DF91CF911F910F9113
:10051000FF90EF900895CF93DF93EC01888D8823AF
:10052000C9F0EA89FB89808185FD05C0A889B98960
:100530008C9186FD0FC00FB607FCF5CF808185FF3B
:10054000F2CFA889B9898C9185FFEDCFCE010E94A9
:100550002302E7CFDF91CF91089580E090E0892BCF
:1005600029F00E94190281110C9400000895CF9384
:10057000DF93009779F0FC0101900020E9F73197B3
:10058000AF01481B590BBC0183E792E00E94AD010B
:10059000EC0102C0C0E0D0E042E050E062E171E076
:1005A00083E792E00E94AD018C0F9D1FDF91CF91F8
:1005B00008950E946F041F920F920FB60F9211249C
:1005C0002F933F938F939F93AF93BF9380916B0231
:1005D00090916C02A0916D02B0916E0230916A020E
:1005E00023E0230F2D3720F40196A11DB11D05C076
:1005F00026E8230F0296A11DB11D20936A02809365
:100600006B0290936C02A0936D02B0936E02809186
:100610006F0290917002A0917102B09172020196E6
:10062000A11DB11D80936F0290937002A09371027F
:10063000B0937202BF91AF919F918F913F912F9193
:100640000F900FBE0F901F9018951F920F920FB62C
:100650000F9211242F933F934F935F936F937F9348
:100660008F939F93AF93BF93EF93FF9383E792E0B2
:100670000E942302FF91EF91BF91AF919F918F91C3
:100680007F916F915F914F913F912F910F900FBE8E
:100690000F901F9018951F920F920FB60F92112472
:1006A0002F938F939F93EF93FF93E0918302F091A9
:1006B00084028081E0918902F0918A0282FD12C059
:1006C000908180918C028F5F8F7320918D028217B1
:1006D00051F0E0918C02F0E0ED58FD4F958F809342
:1006E0008C0201C08081FF91EF919F918F912F919A
:1006F0000F900FBE0F901F901895789484B582606C
:1007000084BD84B5816084BD85B5826085BD85B5B5
:10071000816085BD80916E00816080936E00109233
:1007200081008091810082608093810080918100AE
:10073000816080938100809180008160809380003F
:100740008091B10084608093B1008091B00081609D
:100750008093B00080917A00846080937A008091C9
:100760007A00826080937A0080917A008160809321
:100770007A0080917A00806880937A001092C1009C
:10078000E0918302F091840282E08083E0917F0215
:10079000F09180021082E0918102F09182028FEC50
:1007A000808310928B02E0918702F091880286E0AC
:1007B0008083E0918502F091860280818061808350
:1007C000E0918502F0918602808188608083E091CB
:1007D0008502F0918602808180688083E0918502A5
:1007E000F091860280818F7D808385E191E00E9477
:1007F000B70282E491E00E94B7028AE00E9487007B
:1008000060E08AE00E94A6008BE00E94870060E022
:100810008BE00E94A6008BE691E00E94B7028CE973
:1008200091E00E94B7028FEC91E00E94B7026CE267
:1008300071E08AE00E94F2000E94750181E092E07E
:100840000E94B70260E08AE00E94A6008CE192E07C
:100850000E94B70268EE73E08BE00E94F2000E94F3
:1008600075018EE492E00E94B70260E08BE00E9486
:10087000A6000E94AD02D3CFE3E7F2E0138212821A
:1008800088EE93E0A0E0B0E084839583A683B783ED
:1008900084E091E09183808385EC90E09587848764
:1008A00084EC90E09787868780EC90E0918B808B3A
:1008B00081EC90E0938B828B82EC90E0958B848B23
:1008C00086EC90E0978B868B118E128E138E148E91
:1008D0000895EE0FFF1F0590F491E02D099481E03B
:0C08E00090E0F8940C947404F894FFCF9E
:1008EC00000000004402AD01DC018B020D02EB01A3
:1008FC00FF010D0A00486F20696E697A69616C69A5
:10090C007A7A61746F20696C2064656275672073F4
:10091C0075206D6F6E69746F722073657269616C8E
:10092C0065002D2D2D2053746F20696E697A6961D5
:10093C006C697A7A616E646F206C61207363686590
:10094C0064612041726475696E6F002D2D2D2048F5
:10095C006F2066696E69746F20646920696E697AAC
:10096C0069616C697A7A617265206C612073636865
:10097C006564612041726475696E6F002D2D2D20A8
:10098C00496E697A696F20696C206C6F6F7020708A
:10099C0072696E636970616C652064656C6C612052
:1009AC007363686564612041726475696E6F0041A0
:1009BC006363656E646F2076656E746F6C61206422
:1009CC006920696E70757420616C6C612076656C41
:1009DC006F636974C3A020646920646566616C747C
:1009EC00005370656E676F206C612076656E746F56
:1009FC006C6120646920696E707574004163636575
:100A0C006E646F2076656E746F6C61206469206F04
:100A1C00757470757420616C6C612076656C6F6395
:100A2C006974C3A020646566696E69746100537053
:100A3C00656E676F206C612076656E746F6C6120DB
:0A0A4C006469206F75747075740002
:00000001FF
